{
  "_format": "hh-sol-artifact-1",
  "contractName": "ERC5564Registry",
  "sourceName": "contracts/ERC5564Registry.sol",
  "abi": [
    {
      "anonymous": false,
      "inputs": [
        {
          "indexed": true,
          "internalType": "address",
          "name": "registrant",
          "type": "address"
        },
        {
          "indexed": true,
          "internalType": "uint256",
          "name": "scheme",
          "type": "uint256"
        },
        {
          "indexed": false,
          "internalType": "bytes",
          "name": "stealthMetaAddress",
          "type": "bytes"
        }
      ],
      "name": "StealthMetaAddressSet",
      "type": "event"
    },
    {
      "inputs": [
        {
          "internalType": "uint256",
          "name": "scheme",
          "type": "uint256"
        },
        {
          "internalType": "bytes",
          "name": "stealthMetaAddress",
          "type": "bytes"
        }
      ],
      "name": "registerKeys",
      "outputs": [],
      "stateMutability": "nonpayable",
      "type": "function"
    },
    {
      "inputs": [
        {
          "internalType": "address",
          "name": "registrant",
          "type": "address"
        },
        {
          "internalType": "uint256",
          "name": "scheme",
          "type": "uint256"
        },
        {
          "internalType": "bytes",
          "name": "signature",
          "type": "bytes"
        },
        {
          "internalType": "bytes",
          "name": "stealthMetaAddress",
          "type": "bytes"
        }
      ],
      "name": "registerKeysOnBehalf",
      "outputs": [],
      "stateMutability": "nonpayable",
      "type": "function"
    },
    {
      "inputs": [
        {
          "internalType": "address",
          "name": "",
          "type": "address"
        },
        {
          "internalType": "uint256",
          "name": "",
          "type": "uint256"
        }
      ],
      "name": "stealthMetaAddressOf",
      "outputs": [
        {
          "internalType": "bytes",
          "name": "",
          "type": "bytes"
        }
      ],
      "stateMutability": "view",
      "type": "function"
    }
  ],
  "bytecode": "0x608060405234801561001057600080fd5b506108ef806100206000396000f3fe608060405234801561001057600080fd5b50600436106100415760003560e01c8063042c7aa314610046578063428d3d0b146100625780637aa8b5ad1461007e575b600080fd5b610060600480360381019061005b91906103a1565b6100ae565b005b61007c6004803603810190610077919061045b565b61015e565b005b610098600480360381019061009391906104fa565b610164565b6040516100a591906105b9565b60405180910390f35b806000803373ffffffffffffffffffffffffffffffffffffffff1673ffffffffffffffffffffffffffffffffffffffff1681526020019081526020016000206000848152602001908152602001600020908161010a91906107e7565b50813373ffffffffffffffffffffffffffffffffffffffff167f4e739a47dfa4fd3cfa92f8fe760cebe125565927e5c422cb28e7aa388a067af98360405161015291906105b9565b60405180910390a35050565b50505050565b60006020528160005260406000206020528060005260406000206000915091505080546101909061060a565b80601f01602080910402602001604051908101604052809291908181526020018280546101bc9061060a565b80156102095780601f106101de57610100808354040283529160200191610209565b820191906000526020600020905b8154815290600101906020018083116101ec57829003601f168201915b505050505081565b6000604051905090565b600080fd5b600080fd5b6000819050919050565b61023881610225565b811461024357600080fd5b50565b6000813590506102558161022f565b92915050565b600080fd5b600080fd5b6000601f19601f8301169050919050565b7f4e487b7100000000000000000000000000000000000000000000000000000000600052604160045260246000fd5b6102ae82610265565b810181811067ffffffffffffffff821117156102cd576102cc610276565b5b80604052505050565b60006102e0610211565b90506102ec82826102a5565b919050565b600067ffffffffffffffff82111561030c5761030b610276565b5b61031582610265565b9050602081019050919050565b82818337600083830152505050565b600061034461033f846102f1565b6102d6565b9050828152602081018484840111156103605761035f610260565b5b61036b848285610322565b509392505050565b600082601f8301126103885761038761025b565b5b8135610398848260208601610331565b91505092915050565b600080604083850312156103b8576103b761021b565b5b60006103c685828601610246565b925050602083013567ffffffffffffffff8111156103e7576103e6610220565b5b6103f385828601610373565b9150509250929050565b600073ffffffffffffffffffffffffffffffffffffffff82169050919050565b6000610428826103fd565b9050919050565b6104388161041d565b811461044357600080fd5b50565b6000813590506104558161042f565b92915050565b600080600080608085870312156104755761047461021b565b5b600061048387828801610446565b945050602061049487828801610246565b935050604085013567ffffffffffffffff8111156104b5576104b4610220565b5b6104c187828801610373565b925050606085013567ffffffffffffffff8111156104e2576104e1610220565b5b6104ee87828801610373565b91505092959194509250565b600080604083850312156105115761051061021b565b5b600061051f85828601610446565b925050602061053085828601610246565b9150509250929050565b600081519050919050565b600082825260208201905092915050565b60005b83811015610574578082015181840152602081019050610559565b60008484015250505050565b600061058b8261053a565b6105958185610545565b93506105a5818560208601610556565b6105ae81610265565b840191505092915050565b600060208201905081810360008301526105d38184610580565b905092915050565b7f4e487b7100000000000000000000000000000000000000000000000000000000600052602260045260246000fd5b6000600282049050600182168061062257607f821691505b602082108103610635576106346105db565b5b50919050565b60008190508160005260206000209050919050565b60006020601f8301049050919050565b600082821b905092915050565b60006008830261069d7fffffffffffffffffffffffffffffffffffffffffffffffffffffffffffffffff82610660565b6106a78683610660565b95508019841693508086168417925050509392505050565b6000819050919050565b60006106e46106df6106da84610225565b6106bf565b610225565b9050919050565b6000819050919050565b6106fe836106c9565b61071261070a826106eb565b84845461066d565b825550505050565b600090565b61072761071a565b6107328184846106f5565b505050565b5b818110156107565761074b60008261071f565b600181019050610738565b5050565b601f82111561079b5761076c8161063b565b61077584610650565b81016020851015610784578190505b61079861079085610650565b830182610737565b50505b505050565b600082821c905092915050565b60006107be600019846008026107a0565b1980831691505092915050565b60006107d783836107ad565b9150826002028217905092915050565b6107f08261053a565b67ffffffffffffffff81111561080957610808610276565b5b610813825461060a565b61081e82828561075a565b600060209050601f831160018114610851576000841561083f578287015190505b61084985826107cb565b8655506108b1565b601f19841661085f8661063b565b60005b8281101561088757848901518255600182019150602085019450602081019050610862565b868310156108a457848901516108a0601f8916826107ad565b8355505b6001600288020188555050505b50505050505056fea26469706673582212209ede9673b6c28f6c86d28f62efd9aae67a9026f23dcc44a324e7e2cac316f69464736f6c63430008180033",
  "linkReferences": {},
  "deployedLinkReferences": {}
}