{
  "contracts/ERC5564Registry.sol": {
    "ERC5564Registry": {
      "abi": [
        {
          "anonymous": false,
          "inputs": [
            {
              "indexed": true,
              "internalType": "address",
              "name": "registrant",
              "type": "address"
            },
            {
              "indexed": true,
              "internalType": "uint256",
              "name": "scheme",
              "type": "uint256"
            },
            {
              "indexed": false,
              "internalType": "bytes",
              "name": "stealthMetaAddress",
              "type": "bytes"
            }
          ],
          "name": "StealthMetaAddressSet",
          "type": "event"
        },
        {
          "inputs": [
            {
              "internalType": "uint256",
              "name": "scheme",
              "type": "uint256"
            },
            {
              "internalType": "bytes",
              "name": "stealthMetaAddress",
              "type": "bytes"
            }
          ],
          "name": "registerKeys",
          "outputs": [],
          "stateMutability": "nonpayable",
          "type": "function"
        },
        {
          "inputs": [
            {
              "internalType": "address",
              "name": "registrant",
              "type": "address"
            },
            {
              "internalType": "uint256",
              "name": "scheme",
              "type": "uint256"
            },
            {
              "internalType": "bytes",
              "name": "signature",
              "type": "bytes"
            },
            {
              "internalType": "bytes",
              "name": "stealthMetaAddress",
              "type": "bytes"
            }
          ],
          "name": "registerKeysOnBehalf",
          "outputs": [],
          "stateMutability": "nonpayable",
          "type": "function"
        },
        {
          "inputs": [
            {
              "internalType": "address",
              "name": "",
              "type": "address"
            },
            {
              "internalType": "uint256",
              "name": "",
              "type": "uint256"
            }
          ],
          "name": "stealthMetaAddressOf",
          "outputs": [
            {
              "internalType": "bytes",
              "name": "",
              "type": "bytes"
            }
          ],
          "stateMutability": "view",
          "type": "function"
        }
      ],
      "evm": {
        "bytecode": {
          "linkReferences": {},
          "object": "608060405234801561001057600080fd5b506108ef806100206000396000f3fe608060405234801561001057600080fd5b50600436106100415760003560e01c8063042c7aa314610046578063428d3d0b146100625780637aa8b5ad1461007e575b600080fd5b610060600480360381019061005b91906103a1565b6100ae565b005b61007c6004803603810190610077919061045b565b61015e565b005b610098600480360381019061009391906104fa565b610164565b6040516100a591906105b9565b60405180910390f35b806000803373ffffffffffffffffffffffffffffffffffffffff1673ffffffffffffffffffffffffffffffffffffffff1681526020019081526020016000206000848152602001908152602001600020908161010a91906107e7565b50813373ffffffffffffffffffffffffffffffffffffffff167f4e739a47dfa4fd3cfa92f8fe760cebe125565927e5c422cb28e7aa388a067af98360405161015291906105b9565b60405180910390a35050565b50505050565b60006020528160005260406000206020528060005260406000206000915091505080546101909061060a565b80601f01602080910402602001604051908101604052809291908181526020018280546101bc9061060a565b80156102095780601f106101de57610100808354040283529160200191610209565b820191906000526020600020905b8154815290600101906020018083116101ec57829003601f168201915b505050505081565b6000604051905090565b600080fd5b600080fd5b6000819050919050565b61023881610225565b811461024357600080fd5b50565b6000813590506102558161022f565b92915050565b600080fd5b600080fd5b6000601f19601f8301169050919050565b7f4e487b7100000000000000000000000000000000000000000000000000000000600052604160045260246000fd5b6102ae82610265565b810181811067ffffffffffffffff821117156102cd576102cc610276565b5b80604052505050565b60006102e0610211565b90506102ec82826102a5565b919050565b600067ffffffffffffffff82111561030c5761030b610276565b5b61031582610265565b9050602081019050919050565b82818337600083830152505050565b600061034461033f846102f1565b6102d6565b9050828152602081018484840111156103605761035f610260565b5b61036b848285610322565b509392505050565b600082601f8301126103885761038761025b565b5b8135610398848260208601610331565b91505092915050565b600080604083850312156103b8576103b761021b565b5b60006103c685828601610246565b925050602083013567ffffffffffffffff8111156103e7576103e6610220565b5b6103f385828601610373565b9150509250929050565b600073ffffffffffffffffffffffffffffffffffffffff82169050919050565b6000610428826103fd565b9050919050565b6104388161041d565b811461044357600080fd5b50565b6000813590506104558161042f565b92915050565b600080600080608085870312156104755761047461021b565b5b600061048387828801610446565b945050602061049487828801610246565b935050604085013567ffffffffffffffff8111156104b5576104b4610220565b5b6104c187828801610373565b925050606085013567ffffffffffffffff8111156104e2576104e1610220565b5b6104ee87828801610373565b91505092959194509250565b600080604083850312156105115761051061021b565b5b600061051f85828601610446565b925050602061053085828601610246565b9150509250929050565b600081519050919050565b600082825260208201905092915050565b60005b83811015610574578082015181840152602081019050610559565b60008484015250505050565b600061058b8261053a565b6105958185610545565b93506105a5818560208601610556565b6105ae81610265565b840191505092915050565b600060208201905081810360008301526105d38184610580565b905092915050565b7f4e487b7100000000000000000000000000000000000000000000000000000000600052602260045260246000fd5b6000600282049050600182168061062257607f821691505b602082108103610635576106346105db565b5b50919050565b60008190508160005260206000209050919050565b60006020601f8301049050919050565b600082821b905092915050565b60006008830261069d7fffffffffffffffffffffffffffffffffffffffffffffffffffffffffffffffff82610660565b6106a78683610660565b95508019841693508086168417925050509392505050565b6000819050919050565b60006106e46106df6106da84610225565b6106bf565b610225565b9050919050565b6000819050919050565b6106fe836106c9565b61071261070a826106eb565b84845461066d565b825550505050565b600090565b61072761071a565b6107328184846106f5565b505050565b5b818110156107565761074b60008261071f565b600181019050610738565b5050565b601f82111561079b5761076c8161063b565b61077584610650565b81016020851015610784578190505b61079861079085610650565b830182610737565b50505b505050565b600082821c905092915050565b60006107be600019846008026107a0565b1980831691505092915050565b60006107d783836107ad565b9150826002028217905092915050565b6107f08261053a565b67ffffffffffffffff81111561080957610808610276565b5b610813825461060a565b61081e82828561075a565b600060209050601f831160018114610851576000841561083f578287015190505b61084985826107cb565b8655506108b1565b601f19841661085f8661063b565b60005b8281101561088757848901518255600182019150602085019450602081019050610862565b868310156108a457848901516108a0601f8916826107ad565b8355505b6001600288020188555050505b50505050505056fea26469706673582212209ede9673b6c28f6c86d28f62efd9aae67a9026f23dcc44a324e7e2cac316f69464736f6c63430008180033",
          "opcodes": "PUSH1 0x80 PUSH1 0x40 MSTORE CALLVALUE DUP1 ISZERO PUSH2 0x10 JUMPI PUSH1 0x0 DUP1 REVERT JUMPDEST POP PUSH2 0x8EF DUP1 PUSH2 0x20 PUSH1 0x0 CODECOPY PUSH1 0x0 RETURN INVALID PUSH1 0x80 PUSH1 0x40 MSTORE CALLVALUE DUP1 ISZERO PUSH2 0x10 JUMPI PUSH1 0x0 DUP1 REVERT JUMPDEST POP PUSH1 0x4 CALLDATASIZE LT PUSH2 0x41 JUMPI PUSH1 0x0 CALLDATALOAD PUSH1 0xE0 SHR DUP1 PUSH4 0x42C7AA3 EQ PUSH2 0x46 JUMPI DUP1 PUSH4 0x428D3D0B EQ PUSH2 0x62 JUMPI DUP1 PUSH4 0x7AA8B5AD EQ PUSH2 0x7E JUMPI JUMPDEST PUSH1 0x0 DUP1 REVERT JUMPDEST PUSH2 0x60 PUSH1 0x4 DUP1 CALLDATASIZE SUB DUP2 ADD SWAP1 PUSH2 0x5B SWAP2 SWAP1 PUSH2 0x3A1 JUMP JUMPDEST PUSH2 0xAE JUMP JUMPDEST STOP JUMPDEST PUSH2 0x7C PUSH1 0x4 DUP1 CALLDATASIZE SUB DUP2 ADD SWAP1 PUSH2 0x77 SWAP2 SWAP1 PUSH2 0x45B JUMP JUMPDEST PUSH2 0x15E JUMP JUMPDEST STOP JUMPDEST PUSH2 0x98 PUSH1 0x4 DUP1 CALLDATASIZE SUB DUP2 ADD SWAP1 PUSH2 0x93 SWAP2 SWAP1 PUSH2 0x4FA JUMP JUMPDEST PUSH2 0x164 JUMP JUMPDEST PUSH1 0x40 MLOAD PUSH2 0xA5 SWAP2 SWAP1 PUSH2 0x5B9 JUMP JUMPDEST PUSH1 0x40 MLOAD DUP1 SWAP2 SUB SWAP1 RETURN JUMPDEST DUP1 PUSH1 0x0 DUP1 CALLER PUSH20 0xFFFFFFFFFFFFFFFFFFFFFFFFFFFFFFFFFFFFFFFF AND PUSH20 0xFFFFFFFFFFFFFFFFFFFFFFFFFFFFFFFFFFFFFFFF AND DUP2 MSTORE PUSH1 0x20 ADD SWAP1 DUP2 MSTORE PUSH1 0x20 ADD PUSH1 0x0 KECCAK256 PUSH1 0x0 DUP5 DUP2 MSTORE PUSH1 0x20 ADD SWAP1 DUP2 MSTORE PUSH1 0x20 ADD PUSH1 0x0 KECCAK256 SWAP1 DUP2 PUSH2 0x10A SWAP2 SWAP1 PUSH2 0x7E7 JUMP JUMPDEST POP DUP2 CALLER PUSH20 0xFFFFFFFFFFFFFFFFFFFFFFFFFFFFFFFFFFFFFFFF AND PUSH32 0x4E739A47DFA4FD3CFA92F8FE760CEBE125565927E5C422CB28E7AA388A067AF9 DUP4 PUSH1 0x40 MLOAD PUSH2 0x152 SWAP2 SWAP1 PUSH2 0x5B9 JUMP JUMPDEST PUSH1 0x40 MLOAD DUP1 SWAP2 SUB SWAP1 LOG3 POP POP JUMP JUMPDEST POP POP POP POP JUMP JUMPDEST PUSH1 0x0 PUSH1 0x20 MSTORE DUP2 PUSH1 0x0 MSTORE PUSH1 0x40 PUSH1 0x0 KECCAK256 PUSH1 0x20 MSTORE DUP1 PUSH1 0x0 MSTORE PUSH1 0x40 PUSH1 0x0 KECCAK256 PUSH1 0x0 SWAP2 POP SWAP2 POP POP DUP1 SLOAD PUSH2 0x190 SWAP1 PUSH2 0x60A JUMP JUMPDEST DUP1 PUSH1 0x1F ADD PUSH1 0x20 DUP1 SWAP2 DIV MUL PUSH1 0x20 ADD PUSH1 0x40 MLOAD SWAP1 DUP2 ADD PUSH1 0x40 MSTORE DUP1 SWAP3 SWAP2 SWAP1 DUP2 DUP2 MSTORE PUSH1 0x20 ADD DUP3 DUP1 SLOAD PUSH2 0x1BC SWAP1 PUSH2 0x60A JUMP JUMPDEST DUP1 ISZERO PUSH2 0x209 JUMPI DUP1 PUSH1 0x1F LT PUSH2 0x1DE JUMPI PUSH2 0x100 DUP1 DUP4 SLOAD DIV MUL DUP4 MSTORE SWAP2 PUSH1 0x20 ADD SWAP2 PUSH2 0x209 JUMP JUMPDEST DUP3 ADD SWAP2 SWAP1 PUSH1 0x0 MSTORE PUSH1 0x20 PUSH1 0x0 KECCAK256 SWAP1 JUMPDEST DUP2 SLOAD DUP2 MSTORE SWAP1 PUSH1 0x1 ADD SWAP1 PUSH1 0x20 ADD DUP1 DUP4 GT PUSH2 0x1EC JUMPI DUP3 SWAP1 SUB PUSH1 0x1F AND DUP3 ADD SWAP2 JUMPDEST POP POP POP POP POP DUP2 JUMP JUMPDEST PUSH1 0x0 PUSH1 0x40 MLOAD SWAP1 POP SWAP1 JUMP JUMPDEST PUSH1 0x0 DUP1 REVERT JUMPDEST PUSH1 0x0 DUP1 REVERT JUMPDEST PUSH1 0x0 DUP2 SWAP1 POP SWAP2 SWAP1 POP JUMP JUMPDEST PUSH2 0x238 DUP2 PUSH2 0x225 JUMP JUMPDEST DUP2 EQ PUSH2 0x243 JUMPI PUSH1 0x0 DUP1 REVERT JUMPDEST POP JUMP JUMPDEST PUSH1 0x0 DUP2 CALLDATALOAD SWAP1 POP PUSH2 0x255 DUP2 PUSH2 0x22F JUMP JUMPDEST SWAP3 SWAP2 POP POP JUMP JUMPDEST PUSH1 0x0 DUP1 REVERT JUMPDEST PUSH1 0x0 DUP1 REVERT JUMPDEST PUSH1 0x0 PUSH1 0x1F NOT PUSH1 0x1F DUP4 ADD AND SWAP1 POP SWAP2 SWAP1 POP JUMP JUMPDEST PUSH32 0x4E487B7100000000000000000000000000000000000000000000000000000000 PUSH1 0x0 MSTORE PUSH1 0x41 PUSH1 0x4 MSTORE PUSH1 0x24 PUSH1 0x0 REVERT JUMPDEST PUSH2 0x2AE DUP3 PUSH2 0x265 JUMP JUMPDEST DUP2 ADD DUP2 DUP2 LT PUSH8 0xFFFFFFFFFFFFFFFF DUP3 GT OR ISZERO PUSH2 0x2CD JUMPI PUSH2 0x2CC PUSH2 0x276 JUMP JUMPDEST JUMPDEST DUP1 PUSH1 0x40 MSTORE POP POP POP JUMP JUMPDEST PUSH1 0x0 PUSH2 0x2E0 PUSH2 0x211 JUMP JUMPDEST SWAP1 POP PUSH2 0x2EC DUP3 DUP3 PUSH2 0x2A5 JUMP JUMPDEST SWAP2 SWAP1 POP JUMP JUMPDEST PUSH1 0x0 PUSH8 0xFFFFFFFFFFFFFFFF DUP3 GT ISZERO PUSH2 0x30C JUMPI PUSH2 0x30B PUSH2 0x276 JUMP JUMPDEST JUMPDEST PUSH2 0x315 DUP3 PUSH2 0x265 JUMP JUMPDEST SWAP1 POP PUSH1 0x20 DUP2 ADD SWAP1 POP SWAP2 SWAP1 POP JUMP JUMPDEST DUP3 DUP2 DUP4 CALLDATACOPY PUSH1 0x0 DUP4 DUP4 ADD MSTORE POP POP POP JUMP JUMPDEST PUSH1 0x0 PUSH2 0x344 PUSH2 0x33F DUP5 PUSH2 0x2F1 JUMP JUMPDEST PUSH2 0x2D6 JUMP JUMPDEST SWAP1 POP DUP3 DUP2 MSTORE PUSH1 0x20 DUP2 ADD DUP5 DUP5 DUP5 ADD GT ISZERO PUSH2 0x360 JUMPI PUSH2 0x35F PUSH2 0x260 JUMP JUMPDEST JUMPDEST PUSH2 0x36B DUP5 DUP3 DUP6 PUSH2 0x322 JUMP JUMPDEST POP SWAP4 SWAP3 POP POP POP JUMP JUMPDEST PUSH1 0x0 DUP3 PUSH1 0x1F DUP4 ADD SLT PUSH2 0x388 JUMPI PUSH2 0x387 PUSH2 0x25B JUMP JUMPDEST JUMPDEST DUP2 CALLDATALOAD PUSH2 0x398 DUP5 DUP3 PUSH1 0x20 DUP7 ADD PUSH2 0x331 JUMP JUMPDEST SWAP2 POP POP SWAP3 SWAP2 POP POP JUMP JUMPDEST PUSH1 0x0 DUP1 PUSH1 0x40 DUP4 DUP6 SUB SLT ISZERO PUSH2 0x3B8 JUMPI PUSH2 0x3B7 PUSH2 0x21B JUMP JUMPDEST JUMPDEST PUSH1 0x0 PUSH2 0x3C6 DUP6 DUP3 DUP7 ADD PUSH2 0x246 JUMP JUMPDEST SWAP3 POP POP PUSH1 0x20 DUP4 ADD CALLDATALOAD PUSH8 0xFFFFFFFFFFFFFFFF DUP2 GT ISZERO PUSH2 0x3E7 JUMPI PUSH2 0x3E6 PUSH2 0x220 JUMP JUMPDEST JUMPDEST PUSH2 0x3F3 DUP6 DUP3 DUP7 ADD PUSH2 0x373 JUMP JUMPDEST SWAP2 POP POP SWAP3 POP SWAP3 SWAP1 POP JUMP JUMPDEST PUSH1 0x0 PUSH20 0xFFFFFFFFFFFFFFFFFFFFFFFFFFFFFFFFFFFFFFFF DUP3 AND SWAP1 POP SWAP2 SWAP1 POP JUMP JUMPDEST PUSH1 0x0 PUSH2 0x428 DUP3 PUSH2 0x3FD JUMP JUMPDEST SWAP1 POP SWAP2 SWAP1 POP JUMP JUMPDEST PUSH2 0x438 DUP2 PUSH2 0x41D JUMP JUMPDEST DUP2 EQ PUSH2 0x443 JUMPI PUSH1 0x0 DUP1 REVERT JUMPDEST POP JUMP JUMPDEST PUSH1 0x0 DUP2 CALLDATALOAD SWAP1 POP PUSH2 0x455 DUP2 PUSH2 0x42F JUMP JUMPDEST SWAP3 SWAP2 POP POP JUMP JUMPDEST PUSH1 0x0 DUP1 PUSH1 0x0 DUP1 PUSH1 0x80 DUP6 DUP8 SUB SLT ISZERO PUSH2 0x475 JUMPI PUSH2 0x474 PUSH2 0x21B JUMP JUMPDEST JUMPDEST PUSH1 0x0 PUSH2 0x483 DUP8 DUP3 DUP9 ADD PUSH2 0x446 JUMP JUMPDEST SWAP5 POP POP PUSH1 0x20 PUSH2 0x494 DUP8 DUP3 DUP9 ADD PUSH2 0x246 JUMP JUMPDEST SWAP4 POP POP PUSH1 0x40 DUP6 ADD CALLDATALOAD PUSH8 0xFFFFFFFFFFFFFFFF DUP2 GT ISZERO PUSH2 0x4B5 JUMPI PUSH2 0x4B4 PUSH2 0x220 JUMP JUMPDEST JUMPDEST PUSH2 0x4C1 DUP8 DUP3 DUP9 ADD PUSH2 0x373 JUMP JUMPDEST SWAP3 POP POP PUSH1 0x60 DUP6 ADD CALLDATALOAD PUSH8 0xFFFFFFFFFFFFFFFF DUP2 GT ISZERO PUSH2 0x4E2 JUMPI PUSH2 0x4E1 PUSH2 0x220 JUMP JUMPDEST JUMPDEST PUSH2 0x4EE DUP8 DUP3 DUP9 ADD PUSH2 0x373 JUMP JUMPDEST SWAP2 POP POP SWAP3 SWAP6 SWAP2 SWAP5 POP SWAP3 POP JUMP JUMPDEST PUSH1 0x0 DUP1 PUSH1 0x40 DUP4 DUP6 SUB SLT ISZERO PUSH2 0x511 JUMPI PUSH2 0x510 PUSH2 0x21B JUMP JUMPDEST JUMPDEST PUSH1 0x0 PUSH2 0x51F DUP6 DUP3 DUP7 ADD PUSH2 0x446 JUMP JUMPDEST SWAP3 POP POP PUSH1 0x20 PUSH2 0x530 DUP6 DUP3 DUP7 ADD PUSH2 0x246 JUMP JUMPDEST SWAP2 POP POP SWAP3 POP SWAP3 SWAP1 POP JUMP JUMPDEST PUSH1 0x0 DUP2 MLOAD SWAP1 POP SWAP2 SWAP1 POP JUMP JUMPDEST PUSH1 0x0 DUP3 DUP3 MSTORE PUSH1 0x20 DUP3 ADD SWAP1 POP SWAP3 SWAP2 POP POP JUMP JUMPDEST PUSH1 0x0 JUMPDEST DUP4 DUP2 LT ISZERO PUSH2 0x574 JUMPI DUP1 DUP3 ADD MLOAD DUP2 DUP5 ADD MSTORE PUSH1 0x20 DUP2 ADD SWAP1 POP PUSH2 0x559 JUMP JUMPDEST PUSH1 0x0 DUP5 DUP5 ADD MSTORE POP POP POP POP JUMP JUMPDEST PUSH1 0x0 PUSH2 0x58B DUP3 PUSH2 0x53A JUMP JUMPDEST PUSH2 0x595 DUP2 DUP6 PUSH2 0x545 JUMP JUMPDEST SWAP4 POP PUSH2 0x5A5 DUP2 DUP6 PUSH1 0x20 DUP7 ADD PUSH2 0x556 JUMP JUMPDEST PUSH2 0x5AE DUP2 PUSH2 0x265 JUMP JUMPDEST DUP5 ADD SWAP2 POP POP SWAP3 SWAP2 POP POP JUMP JUMPDEST PUSH1 0x0 PUSH1 0x20 DUP3 ADD SWAP1 POP DUP2 DUP2 SUB PUSH1 0x0 DUP4 ADD MSTORE PUSH2 0x5D3 DUP2 DUP5 PUSH2 0x580 JUMP JUMPDEST SWAP1 POP SWAP3 SWAP2 POP POP JUMP JUMPDEST PUSH32 0x4E487B7100000000000000000000000000000000000000000000000000000000 PUSH1 0x0 MSTORE PUSH1 0x22 PUSH1 0x4 MSTORE PUSH1 0x24 PUSH1 0x0 REVERT JUMPDEST PUSH1 0x0 PUSH1 0x2 DUP3 DIV SWAP1 POP PUSH1 0x1 DUP3 AND DUP1 PUSH2 0x622 JUMPI PUSH1 0x7F DUP3 AND SWAP2 POP JUMPDEST PUSH1 0x20 DUP3 LT DUP2 SUB PUSH2 0x635 JUMPI PUSH2 0x634 PUSH2 0x5DB JUMP JUMPDEST JUMPDEST POP SWAP2 SWAP1 POP JUMP JUMPDEST PUSH1 0x0 DUP2 SWAP1 POP DUP2 PUSH1 0x0 MSTORE PUSH1 0x20 PUSH1 0x0 KECCAK256 SWAP1 POP SWAP2 SWAP1 POP JUMP JUMPDEST PUSH1 0x0 PUSH1 0x20 PUSH1 0x1F DUP4 ADD DIV SWAP1 POP SWAP2 SWAP1 POP JUMP JUMPDEST PUSH1 0x0 DUP3 DUP3 SHL SWAP1 POP SWAP3 SWAP2 POP POP JUMP JUMPDEST PUSH1 0x0 PUSH1 0x8 DUP4 MUL PUSH2 0x69D PUSH32 0xFFFFFFFFFFFFFFFFFFFFFFFFFFFFFFFFFFFFFFFFFFFFFFFFFFFFFFFFFFFFFFFF DUP3 PUSH2 0x660 JUMP JUMPDEST PUSH2 0x6A7 DUP7 DUP4 PUSH2 0x660 JUMP JUMPDEST SWAP6 POP DUP1 NOT DUP5 AND SWAP4 POP DUP1 DUP7 AND DUP5 OR SWAP3 POP POP POP SWAP4 SWAP3 POP POP POP JUMP JUMPDEST PUSH1 0x0 DUP2 SWAP1 POP SWAP2 SWAP1 POP JUMP JUMPDEST PUSH1 0x0 PUSH2 0x6E4 PUSH2 0x6DF PUSH2 0x6DA DUP5 PUSH2 0x225 JUMP JUMPDEST PUSH2 0x6BF JUMP JUMPDEST PUSH2 0x225 JUMP JUMPDEST SWAP1 POP SWAP2 SWAP1 POP JUMP JUMPDEST PUSH1 0x0 DUP2 SWAP1 POP SWAP2 SWAP1 POP JUMP JUMPDEST PUSH2 0x6FE DUP4 PUSH2 0x6C9 JUMP JUMPDEST PUSH2 0x712 PUSH2 0x70A DUP3 PUSH2 0x6EB JUMP JUMPDEST DUP5 DUP5 SLOAD PUSH2 0x66D JUMP JUMPDEST DUP3 SSTORE POP POP POP POP JUMP JUMPDEST PUSH1 0x0 SWAP1 JUMP JUMPDEST PUSH2 0x727 PUSH2 0x71A JUMP JUMPDEST PUSH2 0x732 DUP2 DUP5 DUP5 PUSH2 0x6F5 JUMP JUMPDEST POP POP POP JUMP JUMPDEST JUMPDEST DUP2 DUP2 LT ISZERO PUSH2 0x756 JUMPI PUSH2 0x74B PUSH1 0x0 DUP3 PUSH2 0x71F JUMP JUMPDEST PUSH1 0x1 DUP2 ADD SWAP1 POP PUSH2 0x738 JUMP JUMPDEST POP POP JUMP JUMPDEST PUSH1 0x1F DUP3 GT ISZERO PUSH2 0x79B JUMPI PUSH2 0x76C DUP2 PUSH2 0x63B JUMP JUMPDEST PUSH2 0x775 DUP5 PUSH2 0x650 JUMP JUMPDEST DUP2 ADD PUSH1 0x20 DUP6 LT ISZERO PUSH2 0x784 JUMPI DUP2 SWAP1 POP JUMPDEST PUSH2 0x798 PUSH2 0x790 DUP6 PUSH2 0x650 JUMP JUMPDEST DUP4 ADD DUP3 PUSH2 0x737 JUMP JUMPDEST POP POP JUMPDEST POP POP POP JUMP JUMPDEST PUSH1 0x0 DUP3 DUP3 SHR SWAP1 POP SWAP3 SWAP2 POP POP JUMP JUMPDEST PUSH1 0x0 PUSH2 0x7BE PUSH1 0x0 NOT DUP5 PUSH1 0x8 MUL PUSH2 0x7A0 JUMP JUMPDEST NOT DUP1 DUP4 AND SWAP2 POP POP SWAP3 SWAP2 POP POP JUMP JUMPDEST PUSH1 0x0 PUSH2 0x7D7 DUP4 DUP4 PUSH2 0x7AD JUMP JUMPDEST SWAP2 POP DUP3 PUSH1 0x2 MUL DUP3 OR SWAP1 POP SWAP3 SWAP2 POP POP JUMP JUMPDEST PUSH2 0x7F0 DUP3 PUSH2 0x53A JUMP JUMPDEST PUSH8 0xFFFFFFFFFFFFFFFF DUP2 GT ISZERO PUSH2 0x809 JUMPI PUSH2 0x808 PUSH2 0x276 JUMP JUMPDEST JUMPDEST PUSH2 0x813 DUP3 SLOAD PUSH2 0x60A JUMP JUMPDEST PUSH2 0x81E DUP3 DUP3 DUP6 PUSH2 0x75A JUMP JUMPDEST PUSH1 0x0 PUSH1 0x20 SWAP1 POP PUSH1 0x1F DUP4 GT PUSH1 0x1 DUP2 EQ PUSH2 0x851 JUMPI PUSH1 0x0 DUP5 ISZERO PUSH2 0x83F JUMPI DUP3 DUP8 ADD MLOAD SWAP1 POP JUMPDEST PUSH2 0x849 DUP6 DUP3 PUSH2 0x7CB JUMP JUMPDEST DUP7 SSTORE POP PUSH2 0x8B1 JUMP JUMPDEST PUSH1 0x1F NOT DUP5 AND PUSH2 0x85F DUP7 PUSH2 0x63B JUMP JUMPDEST PUSH1 0x0 JUMPDEST DUP3 DUP2 LT ISZERO PUSH2 0x887 JUMPI DUP5 DUP10 ADD MLOAD DUP3 SSTORE PUSH1 0x1 DUP3 ADD SWAP2 POP PUSH1 0x20 DUP6 ADD SWAP5 POP PUSH1 0x20 DUP2 ADD SWAP1 POP PUSH2 0x862 JUMP JUMPDEST DUP7 DUP4 LT ISZERO PUSH2 0x8A4 JUMPI DUP5 DUP10 ADD MLOAD PUSH2 0x8A0 PUSH1 0x1F DUP10 AND DUP3 PUSH2 0x7AD JUMP JUMPDEST DUP4 SSTORE POP JUMPDEST PUSH1 0x1 PUSH1 0x2 DUP9 MUL ADD DUP9 SSTORE POP POP POP JUMPDEST POP POP POP POP POP POP JUMP INVALID LOG2 PUSH5 0x6970667358 0x22 SLT KECCAK256 SWAP15 0xDE SWAP7 PUSH20 0xB6C28F6C86D28F62EFD9AAE67A9026F23DCC44A3 0x24 0xE7 0xE2 0xCA 0xC3 AND 0xF6 SWAP5 PUSH5 0x736F6C6343 STOP ADDMOD XOR STOP CALLER "
        },
        "methodIdentifiers": {
          "registerKeys(uint256,bytes)": "042c7aa3",
          "registerKeysOnBehalf(address,uint256,bytes,bytes)": "428d3d0b",
          "stealthMetaAddressOf(address,uint256)": "7aa8b5ad"
        }
      }
    }
  }
}